{
  "_format": "hh-sol-artifact-1",
  "contractName": "EventX",
  "sourceName": "contracts/EventX.sol",
  "abi": [
    {
      "inputs": [
        {
          "internalType": "uint256",
          "name": "_pct",
          "type": "uint256"
        }
      ],
      "stateMutability": "nonpayable",
      "type": "constructor"
    },
    {
      "anonymous": false,
      "inputs": [
        {
          "indexed": true,
          "internalType": "address",
          "name": "owner",
          "type": "address"
        },
        {
          "indexed": true,
          "internalType": "address",
          "name": "approved",
          "type": "address"
        },
        {
          "indexed": true,
          "internalType": "uint256",
          "name": "tokenId",
          "type": "uint256"
        }
      ],
      "name": "Approval",
      "type": "event"
    },
    {
      "anonymous": false,
      "inputs": [
        {
          "indexed": true,
          "internalType": "address",
          "name": "owner",
          "type": "address"
        },
        {
          "indexed": true,
          "internalType": "address",
          "name": "operator",
          "type": "address"
        },
        {
          "indexed": false,
          "internalType": "bool",
          "name": "approved",
          "type": "bool"
        }
      ],
      "name": "ApprovalForAll",
      "type": "event"
    },
    {
      "anonymous": false,
      "inputs": [
        {
          "indexed": true,
          "internalType": "address",
          "name": "previousOwner",
          "type": "address"
        },
        {
          "indexed": true,
          "internalType": "address",
          "name": "newOwner",
          "type": "address"
        }
      ],
      "name": "OwnershipTransferred",
      "type": "event"
    },
    {
      "anonymous": false,
      "inputs": [
        {
          "indexed": true,
          "internalType": "address",
          "name": "from",
          "type": "address"
        },
        {
          "indexed": true,
          "internalType": "address",
          "name": "to",
          "type": "address"
        },
        {
          "indexed": true,
          "internalType": "uint256",
          "name": "tokenId",
          "type": "uint256"
        }
      ],
      "name": "Transfer",
      "type": "event"
    },
    {
      "inputs": [
        {
          "internalType": "address",
          "name": "to",
          "type": "address"
        },
        {
          "internalType": "uint256",
          "name": "tokenId",
          "type": "uint256"
        }
      ],
      "name": "approve",
      "outputs": [],
      "stateMutability": "nonpayable",
      "type": "function"
    },
    {
      "inputs": [],
      "name": "balance",
      "outputs": [
        {
          "internalType": "uint256",
          "name": "",
          "type": "uint256"
        }
      ],
      "stateMutability": "view",
      "type": "function"
    },
    {
      "inputs": [
        {
          "internalType": "address",
          "name": "owner",
          "type": "address"
        }
      ],
      "name": "balanceOf",
      "outputs": [
        {
          "internalType": "uint256",
          "name": "",
          "type": "uint256"
        }
      ],
      "stateMutability": "view",
      "type": "function"
    },
    {
      "inputs": [
        {
          "internalType": "uint256",
          "name": "eventId",
          "type": "uint256"
        },
        {
          "internalType": "uint256",
          "name": "numOfticket",
          "type": "uint256"
        }
      ],
      "name": "buyTickets",
      "outputs": [],
      "stateMutability": "payable",
      "type": "function"
    },
    {
      "inputs": [
        {
          "internalType": "string",
          "name": "title",
          "type": "string"
        },
        {
          "internalType": "string",
          "name": "description",
          "type": "string"
        },
        {
          "internalType": "string",
          "name": "imageUrl",
          "type": "string"
        },
        {
          "internalType": "uint256",
          "name": "capacity",
          "type": "uint256"
        },
        {
          "internalType": "uint256",
          "name": "ticketCost",
          "type": "uint256"
        },
        {
          "internalType": "uint256",
          "name": "startsAt",
          "type": "uint256"
        },
        {
          "internalType": "uint256",
          "name": "endsAt",
          "type": "uint256"
        }
      ],
      "name": "createEvent",
      "outputs": [],
      "stateMutability": "nonpayable",
      "type": "function"
    },
    {
      "inputs": [
        {
          "internalType": "uint256",
          "name": "eventId",
          "type": "uint256"
        }
      ],
      "name": "deleteEvent",
      "outputs": [],
      "stateMutability": "nonpayable",
      "type": "function"
    },
    {
      "inputs": [
        {
          "internalType": "uint256",
          "name": "tokenId",
          "type": "uint256"
        }
      ],
      "name": "getApproved",
      "outputs": [
        {
          "internalType": "address",
          "name": "",
          "type": "address"
        }
      ],
      "stateMutability": "view",
      "type": "function"
    },
    {
      "inputs": [],
      "name": "getEvents",
      "outputs": [
        {
          "components": [
            {
              "internalType": "uint256",
              "name": "id",
              "type": "uint256"
            },
            {
              "internalType": "string",
              "name": "title",
              "type": "string"
            },
            {
              "internalType": "string",
              "name": "imageUrl",
              "type": "string"
            },
            {
              "internalType": "string",
              "name": "description",
              "type": "string"
            },
            {
              "internalType": "address",
              "name": "owner",
              "type": "address"
            },
            {
              "internalType": "uint256",
              "name": "sales",
              "type": "uint256"
            },
            {
              "internalType": "uint256",
              "name": "ticketCost",
              "type": "uint256"
            },
            {
              "internalType": "uint256",
              "name": "capacity",
              "type": "uint256"
            },
            {
              "internalType": "uint256",
              "name": "seats",
              "type": "uint256"
            },
            {
              "internalType": "uint256",
              "name": "startsAt",
              "type": "uint256"
            },
            {
              "internalType": "uint256",
              "name": "endsAt",
              "type": "uint256"
            },
            {
              "internalType": "uint256",
              "name": "timestamp",
              "type": "uint256"
            },
            {
              "internalType": "bool",
              "name": "deleted",
              "type": "bool"
            },
            {
              "internalType": "bool",
              "name": "paidOut",
              "type": "bool"
            },
            {
              "internalType": "bool",
              "name": "refunded",
              "type": "bool"
            },
            {
              "internalType": "bool",
              "name": "minted",
              "type": "bool"
            }
          ],
          "internalType": "struct EventX.EventStruct[]",
          "name": "Events",
          "type": "tuple[]"
        }
      ],
      "stateMutability": "view",
      "type": "function"
    },
    {
      "inputs": [],
      "name": "getMyEvents",
      "outputs": [
        {
          "components": [
            {
              "internalType": "uint256",
              "name": "id",
              "type": "uint256"
            },
            {
              "internalType": "string",
              "name": "title",
              "type": "string"
            },
            {
              "internalType": "string",
              "name": "imageUrl",
              "type": "string"
            },
            {
              "internalType": "string",
              "name": "description",
              "type": "string"
            },
            {
              "internalType": "address",
              "name": "owner",
              "type": "address"
            },
            {
              "internalType": "uint256",
              "name": "sales",
              "type": "uint256"
            },
            {
              "internalType": "uint256",
              "name": "ticketCost",
              "type": "uint256"
            },
            {
              "internalType": "uint256",
              "name": "capacity",
              "type": "uint256"
            },
            {
              "internalType": "uint256",
              "name": "seats",
              "type": "uint256"
            },
            {
              "internalType": "uint256",
              "name": "startsAt",
              "type": "uint256"
            },
            {
              "internalType": "uint256",
              "name": "endsAt",
              "type": "uint256"
            },
            {
              "internalType": "uint256",
              "name": "timestamp",
              "type": "uint256"
            },
            {
              "internalType": "bool",
              "name": "deleted",
              "type": "bool"
            },
            {
              "internalType": "bool",
              "name": "paidOut",
              "type": "bool"
            },
            {
              "internalType": "bool",
              "name": "refunded",
              "type": "bool"
            },
            {
              "internalType": "bool",
              "name": "minted",
              "type": "bool"
            }
          ],
          "internalType": "struct EventX.EventStruct[]",
          "name": "Events",
          "type": "tuple[]"
        }
      ],
      "stateMutability": "view",
      "type": "function"
    },
    {
      "inputs": [
        {
          "internalType": "uint256",
          "name": "eventId",
          "type": "uint256"
        }
      ],
      "name": "getSingleEvent",
      "outputs": [
        {
          "components": [
            {
              "internalType": "uint256",
              "name": "id",
              "type": "uint256"
            },
            {
              "internalType": "string",
              "name": "title",
              "type": "string"
            },
            {
              "internalType": "string",
              "name": "imageUrl",
              "type": "string"
            },
            {
              "internalType": "string",
              "name": "description",
              "type": "string"
            },
            {
              "internalType": "address",
              "name": "owner",
              "type": "address"
            },
            {
              "internalType": "uint256",
              "name": "sales",
              "type": "uint256"
            },
            {
              "internalType": "uint256",
              "name": "ticketCost",
              "type": "uint256"
            },
            {
              "internalType": "uint256",
              "name": "capacity",
              "type": "uint256"
            },
            {
              "internalType": "uint256",
              "name": "seats",
              "type": "uint256"
            },
            {
              "internalType": "uint256",
              "name": "startsAt",
              "type": "uint256"
            },
            {
              "internalType": "uint256",
              "name": "endsAt",
              "type": "uint256"
            },
            {
              "internalType": "uint256",
              "name": "timestamp",
              "type": "uint256"
            },
            {
              "internalType": "bool",
              "name": "deleted",
              "type": "bool"
            },
            {
              "internalType": "bool",
              "name": "paidOut",
              "type": "bool"
            },
            {
              "internalType": "bool",
              "name": "refunded",
              "type": "bool"
            },
            {
              "internalType": "bool",
              "name": "minted",
              "type": "bool"
            }
          ],
          "internalType": "struct EventX.EventStruct",
          "name": "",
          "type": "tuple"
        }
      ],
      "stateMutability": "view",
      "type": "function"
    },
    {
      "inputs": [
        {
          "internalType": "uint256",
          "name": "eventId",
          "type": "uint256"
        }
      ],
      "name": "getTickets",
      "outputs": [
        {
          "components": [
            {
              "internalType": "uint256",
              "name": "id",
              "type": "uint256"
            },
            {
              "internalType": "uint256",
              "name": "eventId",
              "type": "uint256"
            },
            {
              "internalType": "address",
              "name": "owner",
              "type": "address"
            },
            {
              "internalType": "uint256",
              "name": "ticketCost",
              "type": "uint256"
            },
            {
              "internalType": "uint256",
              "name": "timestamp",
              "type": "uint256"
            },
            {
              "internalType": "bool",
              "name": "refunded",
              "type": "bool"
            },
            {
              "internalType": "bool",
              "name": "minted",
              "type": "bool"
            }
          ],
          "internalType": "struct EventX.TicketStruct[]",
          "name": "",
          "type": "tuple[]"
        }
      ],
      "stateMutability": "view",
      "type": "function"
    },
    {
      "inputs": [
        {
          "internalType": "address",
          "name": "owner",
          "type": "address"
        },
        {
          "internalType": "address",
          "name": "operator",
          "type": "address"
        }
      ],
      "name": "isApprovedForAll",
      "outputs": [
        {
          "internalType": "bool",
          "name": "",
          "type": "bool"
        }
      ],
      "stateMutability": "view",
      "type": "function"
    },
    {
      "inputs": [],
      "name": "name",
      "outputs": [
        {
          "internalType": "string",
          "name": "",
          "type": "string"
        }
      ],
      "stateMutability": "view",
      "type": "function"
    },
    {
      "inputs": [],
      "name": "owner",
      "outputs": [
        {
          "internalType": "address",
          "name": "",
          "type": "address"
        }
      ],
      "stateMutability": "view",
      "type": "function"
    },
    {
      "inputs": [
        {
          "internalType": "uint256",
          "name": "tokenId",
          "type": "uint256"
        }
      ],
      "name": "ownerOf",
      "outputs": [
        {
          "internalType": "address",
          "name": "",
          "type": "address"
        }
      ],
      "stateMutability": "view",
      "type": "function"
    },
    {
      "inputs": [
        {
          "internalType": "uint256",
          "name": "eventId",
          "type": "uint256"
        }
      ],
      "name": "payout",
      "outputs": [],
      "stateMutability": "nonpayable",
      "type": "function"
    },
    {
      "inputs": [],
      "name": "renounceOwnership",
      "outputs": [],
      "stateMutability": "nonpayable",
      "type": "function"
    },
    {
      "inputs": [
        {
          "internalType": "address",
          "name": "from",
          "type": "address"
        },
        {
          "internalType": "address",
          "name": "to",
          "type": "address"
        },
        {
          "internalType": "uint256",
          "name": "tokenId",
          "type": "uint256"
        }
      ],
      "name": "safeTransferFrom",
      "outputs": [],
      "stateMutability": "nonpayable",
      "type": "function"
    },
    {
      "inputs": [
        {
          "internalType": "address",
          "name": "from",
          "type": "address"
        },
        {
          "internalType": "address",
          "name": "to",
          "type": "address"
        },
        {
          "internalType": "uint256",
          "name": "tokenId",
          "type": "uint256"
        },
        {
          "internalType": "bytes",
          "name": "data",
          "type": "bytes"
        }
      ],
      "name": "safeTransferFrom",
      "outputs": [],
      "stateMutability": "nonpayable",
      "type": "function"
    },
    {
      "inputs": [
        {
          "internalType": "address",
          "name": "operator",
          "type": "address"
        },
        {
          "internalType": "bool",
          "name": "approved",
          "type": "bool"
        }
      ],
      "name": "setApprovalForAll",
      "outputs": [],
      "stateMutability": "nonpayable",
      "type": "function"
    },
    {
      "inputs": [
        {
          "internalType": "bytes4",
          "name": "interfaceId",
          "type": "bytes4"
        }
      ],
      "name": "supportsInterface",
      "outputs": [
        {
          "internalType": "bool",
          "name": "",
          "type": "bool"
        }
      ],
      "stateMutability": "view",
      "type": "function"
    },
    {
      "inputs": [],
      "name": "symbol",
      "outputs": [
        {
          "internalType": "string",
          "name": "",
          "type": "string"
        }
      ],
      "stateMutability": "view",
      "type": "function"
    },
    {
      "inputs": [
        {
          "internalType": "uint256",
          "name": "tokenId",
          "type": "uint256"
        }
      ],
      "name": "tokenURI",
      "outputs": [
        {
          "internalType": "string",
          "name": "",
          "type": "string"
        }
      ],
      "stateMutability": "view",
      "type": "function"
    },
    {
      "inputs": [
        {
          "internalType": "address",
          "name": "from",
          "type": "address"
        },
        {
          "internalType": "address",
          "name": "to",
          "type": "address"
        },
        {
          "internalType": "uint256",
          "name": "tokenId",
          "type": "uint256"
        }
      ],
      "name": "transferFrom",
      "outputs": [],
      "stateMutability": "nonpayable",
      "type": "function"
    },
    {
      "inputs": [
        {
          "internalType": "address",
          "name": "newOwner",
          "type": "address"
        }
      ],
      "name": "transferOwnership",
      "outputs": [],
      "stateMutability": "nonpayable",
      "type": "function"
    },
    {
      "inputs": [
        {
          "internalType": "uint256",
          "name": "eventId",
          "type": "uint256"
        },
        {
          "internalType": "string",
          "name": "title",
          "type": "string"
        },
        {
          "internalType": "string",
          "name": "description",
          "type": "string"
        },
        {
          "internalType": "string",
          "name": "imageUrl",
          "type": "string"
        },
        {
          "internalType": "uint256",
          "name": "capacity",
          "type": "uint256"
        },
        {
          "internalType": "uint256",
          "name": "ticketCost",
          "type": "uint256"
        },
        {
          "internalType": "uint256",
          "name": "startsAt",
          "type": "uint256"
        },
        {
          "internalType": "uint256",
          "name": "endsAt",
          "type": "uint256"
        }
      ],
      "name": "updateEvent",
      "outputs": [],
      "stateMutability": "nonpayable",
      "type": "function"
    }
  ],
  "bytecode": "0x60806040523480156200001157600080fd5b5060405162003f1338038062003f1383398101604081905262000034916200010b565b6040518060400160405280600781526020016608aeccadce840b60cb1b8152506040518060400160405280600381526020016208aa8b60eb1b8152506200008a62000084620000b760201b60201c565b620000bb565b6001805560026200009c8382620001ca565b506003620000ab8282620001ca565b505050600b5562000296565b3390565b600080546001600160a01b038381166001600160a01b0319831681178455604051919092169283917f8be0079c531659141344cd1fd0a4f28419497f9722a3daafe3b4186f6b6457e09190a35050565b6000602082840312156200011e57600080fd5b5051919050565b634e487b7160e01b600052604160045260246000fd5b600181811c908216806200015057607f821691505b6020821081036200017157634e487b7160e01b600052602260045260246000fd5b50919050565b601f821115620001c557600081815260208120601f850160051c81016020861015620001a05750805b601f850160051c820191505b81811015620001c157828155600101620001ac565b5050505b505050565b81516001600160401b03811115620001e657620001e662000125565b620001fe81620001f784546200013b565b8462000177565b602080601f8311600181146200023657600084156200021d5750858301515b600019600386901b1c1916600185901b178555620001c1565b600085815260208120601f198616915b82811015620002675788860151825594840194600190910190840162000246565b5085821015620002865787850151600019600388901b60f8161c191681555b5050505050600190811b01905550565b613c6d80620002a66000396000f3fe6080604052600436106101815760003560e01c8063835e489f116100d1578063b88d4fde1161008a578063e985e9c511610064578063e985e9c514610467578063ead6d0dd14610487578063f2fde38b146104a7578063f8749a58146104c757600080fd5b8063b88d4fde14610407578063c87b56dd14610427578063e11523431461044757600080fd5b8063835e489f1461036b5780638627df461461038b5780638da5cb5b1461039e57806395d89b41146103bc578063a22cb465146103d1578063b69ef8a8146103f157600080fd5b806323b872dd1161013e57806342842e0e1161011857806342842e0e146102e85780636352211e1461030857806370a0823114610328578063715018a61461035657600080fd5b806323b872dd146102915780633548124b146102b1578063404aa8f9146102d357600080fd5b806301ffc9a71461018657806306fdde03146101bb578063071843aa146101dd578063081812fc1461020a578063095ea7b31461024257806314f2979f14610264575b600080fd5b34801561019257600080fd5b506101a66101a136600461314a565b6104e7565b60405190151581526020015b60405180910390f35b3480156101c757600080fd5b506101d0610539565b6040516101b291906131b7565b3480156101e957600080fd5b506101fd6101f83660046131ca565b6105cb565b6040516101b291906132db565b34801561021657600080fd5b5061022a6102253660046131ca565b610858565b6040516001600160a01b0390911681526020016101b2565b34801561024e57600080fd5b5061026261025d36600461330a565b61087f565b005b34801561027057600080fd5b5061028461027f3660046131ca565b610999565b6040516101b29190613334565b34801561029d57600080fd5b506102626102ac3660046133c3565b610a5f565b3480156102bd57600080fd5b506102c6610a90565b6040516101b291906133ff565b3480156102df57600080fd5b506102c6610e24565b3480156102f457600080fd5b506102626103033660046133c3565b611200565b34801561031457600080fd5b5061022a6103233660046131ca565b61121b565b34801561033457600080fd5b50610348610343366004613461565b61127b565b6040519081526020016101b2565b34801561036257600080fd5b50610262611301565b34801561037757600080fd5b50610262610386366004613528565b611315565b6102626103993660046135d5565b611661565b3480156103aa57600080fd5b506000546001600160a01b031661022a565b3480156103c857600080fd5b506101d061195c565b3480156103dd57600080fd5b506102626103ec3660046135f7565b61196b565b3480156103fd57600080fd5b50610348600a5481565b34801561041357600080fd5b50610262610422366004613633565b61197a565b34801561043357600080fd5b506101d06104423660046131ca565b6119b2565b34801561045357600080fd5b506102626104623660046131ca565b611a26565b34801561047357600080fd5b506101a66104823660046136af565b611c71565b34801561049357600080fd5b506102626104a23660046136e2565b611c9f565b3480156104b357600080fd5b506102626104c2366004613461565b6122ef565b3480156104d357600080fd5b506102626104e23660046131ca565b612368565b60006001600160e01b031982166380ac58cd60e01b148061051857506001600160e01b03198216635b5e139f60e01b145b8061053357506301ffc9a760e01b6001600160e01b03198316145b92915050565b60606002805461054890613798565b80601f016020809104026020016040519081016040528092919081815260200182805461057490613798565b80156105c15780601f10610596576101008083540402835291602001916105c1565b820191906000526020600020905b8154815290600101906020018083116105a457829003601f168201915b5050505050905090565b6105d36130a6565b600c6000838152602001908152602001600020604051806102000160405290816000820154815260200160018201805461060c90613798565b80601f016020809104026020016040519081016040528092919081815260200182805461063890613798565b80156106855780601f1061065a57610100808354040283529160200191610685565b820191906000526020600020905b81548152906001019060200180831161066857829003601f168201915b5050505050815260200160028201805461069e90613798565b80601f01602080910402602001604051908101604052809291908181526020018280546106ca90613798565b80156107175780601f106106ec57610100808354040283529160200191610717565b820191906000526020600020905b8154815290600101906020018083116106fa57829003601f168201915b5050505050815260200160038201805461073090613798565b80601f016020809104026020016040519081016040528092919081815260200182805461075c90613798565b80156107a95780601f1061077e576101008083540402835291602001916107a9565b820191906000526020600020905b81548152906001019060200180831161078c57829003601f168201915b505050918352505060048201546001600160a01b03166020820152600582015460408201526006820154606082015260078201546080820152600882015460a0820152600982015460c0820152600a82015460e0820152600b82015461010080830191909152600c9092015460ff808216151561012084015292810483161515610140830152620100008104831615156101608301526301000000900490911615156101809091015292915050565b600061086382612529565b506000908152600660205260409020546001600160a01b031690565b600061088a8261121b565b9050806001600160a01b0316836001600160a01b0316036108fc5760405162461bcd60e51b815260206004820152602160248201527f4552433732313a20617070726f76616c20746f2063757272656e74206f776e656044820152603960f91b60648201526084015b60405180910390fd5b336001600160a01b038216148061091857506109188133611c71565b61098a5760405162461bcd60e51b815260206004820152603d60248201527f4552433732313a20617070726f76652063616c6c6572206973206e6f7420746f60448201527f6b656e206f776e6572206f7220617070726f76656420666f7220616c6c00000060648201526084016108f3565b6109948383612588565b505050565b6060600d6000838152602001908152602001600020805480602002602001604051908101604052809291908181526020016000905b82821015610a545760008481526020908190206040805160e08101825260068602909201805483526001808201548486015260028201546001600160a01b03169284019290925260038101546060840152600481015460808401526005015460ff808216151560a085015261010090910416151560c083015290835290920191016109ce565b505050509050919050565b610a6933826125f6565b610a855760405162461bcd60e51b81526004016108f3906137d2565b610994838383612655565b60606000805b6008548111610ae0576001600052600c602052600080516020613c188339815191525460ff16610ace5781610aca81613835565b9250505b80610ad881613835565b915050610a96565b508067ffffffffffffffff811115610afa57610afa61347c565b604051908082528060200260200182016040528015610b3357816020015b610b206130a6565b815260200190600190039081610b185790505b5091506000805b6008548111610e1e576001600052600c602052600080516020613c188339815191525460ff16610e0c57600c60008281526020019081526020016000206040518061020001604052908160008201548152602001600182018054610b9d90613798565b80601f0160208091040260200160405190810160405280929190818152602001828054610bc990613798565b8015610c165780601f10610beb57610100808354040283529160200191610c16565b820191906000526020600020905b815481529060010190602001808311610bf957829003601f168201915b50505050508152602001600282018054610c2f90613798565b80601f0160208091040260200160405190810160405280929190818152602001828054610c5b90613798565b8015610ca85780601f10610c7d57610100808354040283529160200191610ca8565b820191906000526020600020905b815481529060010190602001808311610c8b57829003601f168201915b50505050508152602001600382018054610cc190613798565b80601f0160208091040260200160405190810160405280929190818152602001828054610ced90613798565b8015610d3a5780601f10610d0f57610100808354040283529160200191610d3a565b820191906000526020600020905b815481529060010190602001808311610d1d57829003601f168201915b505050918352505060048201546001600160a01b03166020820152600582015460408201526006820154606082015260078201546080820152600882015460a0820152600982015460c0820152600a82015460e0820152600b82015461010080830191909152600c9092015460ff80821615156101208401529281048316151561014083015262010000810483161515610160830152630100000090049091161515610180909101528483610dee81613835565b945081518110610e0057610e0061384e565b60200260200101819052505b80610e1681613835565b915050610b3a565b50505090565b60606000805b6008548111610e9b576001600052600c602052600080516020613c188339815191525460ff16158015610e7657506000818152600c60205260409020600401546001600160a01b031633145b15610e895781610e8581613835565b9250505b80610e9381613835565b915050610e2a565b508067ffffffffffffffff811115610eb557610eb561347c565b604051908082528060200260200182016040528015610eee57816020015b610edb6130a6565b815260200190600190039081610ed35790505b5091506000805b6008548111610e1e576001600052600c602052600080516020613c188339815191525460ff16158015610f4157506000818152600c60205260409020600401546001600160a01b031633145b156111ee57600c60008281526020019081526020016000206040518061020001604052908160008201548152602001600182018054610f7f90613798565b80601f0160208091040260200160405190810160405280929190818152602001828054610fab90613798565b8015610ff85780601f10610fcd57610100808354040283529160200191610ff8565b820191906000526020600020905b815481529060010190602001808311610fdb57829003601f168201915b5050505050815260200160028201805461101190613798565b80601f016020809104026020016040519081016040528092919081815260200182805461103d90613798565b801561108a5780601f1061105f5761010080835404028352916020019161108a565b820191906000526020600020905b81548152906001019060200180831161106d57829003601f168201915b505050505081526020016003820180546110a390613798565b80601f01602080910402602001604051908101604052809291908181526020018280546110cf90613798565b801561111c5780601f106110f15761010080835404028352916020019161111c565b820191906000526020600020905b8154815290600101906020018083116110ff57829003601f168201915b505050918352505060048201546001600160a01b03166020820152600582015460408201526006820154606082015260078201546080820152600882015460a0820152600982015460c0820152600a82015460e0820152600b82015461010080830191909152600c9092015460ff808216151561012084015292810483161515610140830152620100008104831615156101608301526301000000900490911615156101809091015284836111d081613835565b9450815181106111e2576111e261384e565b60200260200101819052505b806111f881613835565b915050610ef5565b6109948383836040518060200160405280600081525061197a565b6000818152600460205260408120546001600160a01b0316806105335760405162461bcd60e51b8152602060048201526018602482015277115490cdcc8c4e881a5b9d985b1a59081d1bdad95b88125160421b60448201526064016108f3565b60006001600160a01b0382166112e55760405162461bcd60e51b815260206004820152602960248201527f4552433732313a2061646472657373207a65726f206973206e6f7420612076616044820152683634b21037bbb732b960b91b60648201526084016108f3565b506001600160a01b031660009081526005602052604090205490565b6113096127b9565b6113136000612813565b565b600083116113355760405162461bcd60e51b81526004016108f390613864565b600084116113855760405162461bcd60e51b815260206004820152601f60248201527f4361706163697479206d7573742062652067726561746572207468616e20300060448201526064016108f3565b60008751116113ce5760405162461bcd60e51b81526020600482015260156024820152745469746c652063616e6e6f7420626520656d70747960581b60448201526064016108f3565b600086511161141f5760405162461bcd60e51b815260206004820152601b60248201527f4465736372697074696f6e2063616e6e6f7420626520656d707479000000000060448201526064016108f3565b600085511161146c5760405162461bcd60e51b8152602060048201526019602482015278496d6167652055524c2063616e6e6f7420626520656d70747960381b60448201526064016108f3565b6000821161148c5760405162461bcd60e51b81526004016108f3906138a6565b8181116114ab5760405162461bcd60e51b81526004016108f3906138e7565b6114b9600880546001019055565b6114c16130a6565b600854815260208101889052606081018790526040810186905260e0810185905260c0810184905261012081018390526101408101829052336080820152611507612863565b61016082015280516000908152600e60209081526040808320805460ff1916600190811790915584518452600c835292208351815590830151839282019061154f908261397d565b5060408201516002820190611564908261397d565b5060608201516003820190611579908261397d565b5060808201516004820180546001600160a01b0319166001600160a01b0390921691909117905560a0820151600582015560c0820151600682015560e082015160078201556101008083015160088301556101208301516009830155610140830151600a830155610160830151600b830155610180830151600c90920180546101a08501516101c08601516101e09096015161ffff1990921694151561ff001916949094179315159092029290921763ffff00001916620100009315159390930263ff0000001916929092176301000000921515929092029190911790555050505050505050565b6000828152600e602052604090205460ff1661168f5760405162461bcd60e51b81526004016108f390613a3d565b6000811180156116a0575060038111155b6116fc5760405162461bcd60e51b815260206004820152602760248201527f4e756d626572206f66207469636b657473206d757374206265206265747765656044820152666e2031202d203360c81b60648201526084016108f3565b6000828152600c60205260409020600601546117189082613a6b565b34101561175c5760405162461bcd60e51b8152602060048201526012602482015271496e73756666696369656e742066756e647360701b60448201526064016108f3565b6000828152600c602052604090206007810154600890910154611780908390613a82565b11156117ce5760405162461bcd60e51b815260206004820152601a60248201527f4e6f7420656e6f75676820736561747320617661696c61626c6500000000000060448201526064016108f3565b60005b81811015611918576118266040518060e00160405280600081526020016000815260200160006001600160a01b0316815260200160008152602001600081526020016000151581526020016000151581525090565b6000848152600d602090815260408083205484528382018790523384820152868352600c9091529020600601546060820152611860612863565b608082019081526000858152600d6020908152604080832080546001818101835591855293839020865160069095020193845591850151918301919091558301516002820180546001600160a01b039092166001600160a01b0319909216919091179055606083015160038201559051600482015560a08201516005909101805460c09093015115156101000261ff00199215159290921661ffff19909316929092171790558061191081613835565b9150506117d1565b506000828152600c60205260408120600801805483929061193a908490613a82565b9250508190555034600a60008282546119539190613a82565b90915550505050565b60606003805461054890613798565b611976338383612882565b5050565b61198433836125f6565b6119a05760405162461bcd60e51b81526004016108f3906137d2565b6119ac84848484612950565b50505050565b60606119bd82612529565b60006119d460408051602081019091526000815290565b905060008151116119f45760405180602001604052806000815250611a1f565b806119fe84612983565b604051602001611a0f929190613a95565b6040516020818303038152906040525b9392505050565b6000818152600e602052604090205460ff16611a545760405162461bcd60e51b81526004016108f390613a3d565b6000818152600c602081905260409091200154610100900460ff1615611ab55760405162461bcd60e51b8152602060048201526016602482015275115d995b9d08185b1c9958591e481c185a59081bdd5d60521b60448201526064016108f3565b6000818152600c60205260409020600a0154611acf612863565b11611b125760405162461bcd60e51b8152602060048201526013602482015272115d995b9d081a185cc81b9bdd08195b991959606a1b60448201526064016108f3565b6000818152600c60205260409020600401546001600160a01b0316331480611b4457506000546001600160a01b031633145b611b605760405162461bcd60e51b81526004016108f390613ac4565b611b6981612a16565b611baa5760405162461bcd60e51b8152602060048201526012602482015271151a58dad95d1cc81b9bdd081b5a5b9d195960721b60448201526064016108f3565b6000818152600c602052604081206008810154600690910154611bcd9190613a6b565b905060006064600b5483611be19190613a6b565b611beb9190613af1565b6000848152600c6020526040902060040154909150611c1c906001600160a01b0316611c178385613b13565b612b18565b611c37611c316000546001600160a01b031690565b82612b18565b6000838152600c60208190526040822001805461ff001916610100179055600a8054849290611c67908490613b13565b9091555050505050565b6001600160a01b03918216600090815260076020908152604080832093909416825291909152205460ff1690565b6000888152600e602052604090205460ff16611ccd5760405162461bcd60e51b81526004016108f390613a3d565b6000888152600c60205260409020600401546001600160a01b03163314611d065760405162461bcd60e51b81526004016108f390613ac4565b60008311611d265760405162461bcd60e51b81526004016108f390613864565b60008411611d765760405162461bcd60e51b815260206004820152601f60248201527f4361706163697479206d7573742062652067726561746572207468616e20300060448201526064016108f3565b6000875111611dbf5760405162461bcd60e51b81526020600482015260156024820152745469746c652063616e6e6f7420626520656d70747960581b60448201526064016108f3565b6000865111611e105760405162461bcd60e51b815260206004820152601b60248201527f4465736372697074696f6e2063616e6e6f7420626520656d707479000000000060448201526064016108f3565b6000855111611e5d5760405162461bcd60e51b8152602060048201526019602482015278496d6167652055524c2063616e6e6f7420626520656d70747960381b60448201526064016108f3565b60008211611e7d5760405162461bcd60e51b81526004016108f3906138a6565b818111611e9c5760405162461bcd60e51b81526004016108f3906138e7565b6000600c60008a81526020019081526020016000206040518061020001604052908160008201548152602001600182018054611ed790613798565b80601f0160208091040260200160405190810160405280929190818152602001828054611f0390613798565b8015611f505780601f10611f2557610100808354040283529160200191611f50565b820191906000526020600020905b815481529060010190602001808311611f3357829003601f168201915b50505050508152602001600282018054611f6990613798565b80601f0160208091040260200160405190810160405280929190818152602001828054611f9590613798565b8015611fe25780601f10611fb757610100808354040283529160200191611fe2565b820191906000526020600020905b815481529060010190602001808311611fc557829003601f168201915b50505050508152602001600382018054611ffb90613798565b80601f016020809104026020016040519081016040528092919081815260200182805461202790613798565b80156120745780601f1061204957610100808354040283529160200191612074565b820191906000526020600020905b81548152906001019060200180831161205757829003601f168201915b505050505081526020016004820160009054906101000a90046001600160a01b03166001600160a01b03166001600160a01b031681526020016005820154815260200160068201548152602001600782015481526020016008820154815260200160098201548152602001600a8201548152602001600b8201548152602001600c820160009054906101000a900460ff16151515158152602001600c820160019054906101000a900460ff16151515158152602001600c820160029054906101000a900460ff16151515158152602001600c820160039054906101000a900460ff1615151515815250509050878160200181905250868160600181905250858160400181905250848160e0018181525050838160c00181815250508281610120018181525050818161014001818152505080600c6000836000015181526020019081526020016000206000820151816000015560208201518160010190816121dc919061397d565b50604082015160028201906121f1908261397d565b5060608201516003820190612206908261397d565b5060808201516004820180546001600160a01b0319166001600160a01b0390921691909117905560a0820151600582015560c0820151600682015560e082015160078201556101008083015160088301556101208301516009830155610140830151600a830155610160830151600b830155610180830151600c90920180546101a08501516101c08601516101e09096015161ffff1990921694151561ff001916949094179315159092029290921763ffff00001916620100009315159390930263ff000000191692909217630100000092151592909202919091179055505050505050505050565b6122f76127b9565b6001600160a01b03811661235c5760405162461bcd60e51b815260206004820152602660248201527f4f776e61626c653a206e6577206f776e657220697320746865207a65726f206160448201526564647265737360d01b60648201526084016108f3565b61236581612813565b50565b612370612b78565b6000818152600e602052604090205460ff1661239e5760405162461bcd60e51b81526004016108f390613a3d565b6000818152600c60205260409020600401546001600160a01b03163314806123d057506000546001600160a01b031633145b6123ec5760405162461bcd60e51b81526004016108f390613ac4565b6000818152600c602081905260409091200154610100900460ff16156124545760405162461bcd60e51b815260206004820181905260248201527f4576656e74206861766520616c7265616479206265656e2070616964206f757460448201526064016108f3565b6000818152600c60208190526040909120015462010000900460ff16156124b65760405162461bcd60e51b8152602060048201526016602482015275115d995b9d08185b1c9958591e481c99599d5b99195960521b60448201526064016108f3565b6124bf81612bd1565b6125035760405162461bcd60e51b8152602060048201526015602482015274115d995b9d0819985b1959081d1bc81c99599d5b99605a1b60448201526064016108f3565b6000818152600c6020819052604090912001805460ff1916600117905561236560018055565b6000818152600460205260409020546001600160a01b03166123655760405162461bcd60e51b8152602060048201526018602482015277115490cdcc8c4e881a5b9d985b1a59081d1bdad95b88125160421b60448201526064016108f3565b600081815260066020526040902080546001600160a01b0319166001600160a01b03841690811790915581906125bd8261121b565b6001600160a01b03167f8c5be1e5ebec7d5bd14f71427d1e84f3dd0314c0f7b2291e5b200ac8c7c3b92560405160405180910390a45050565b6000806126028361121b565b9050806001600160a01b0316846001600160a01b0316148061262957506126298185611c71565b8061264d5750836001600160a01b031661264284610858565b6001600160a01b0316145b949350505050565b826001600160a01b03166126688261121b565b6001600160a01b03161461268e5760405162461bcd60e51b81526004016108f390613b26565b6001600160a01b0382166126f05760405162461bcd60e51b8152602060048201526024808201527f4552433732313a207472616e7366657220746f20746865207a65726f206164646044820152637265737360e01b60648201526084016108f3565b826001600160a01b03166127038261121b565b6001600160a01b0316146127295760405162461bcd60e51b81526004016108f390613b26565b600081815260066020908152604080832080546001600160a01b03199081169091556001600160a01b0387811680865260058552838620805460001901905590871680865283862080546001019055868652600490945282852080549092168417909155905184937fddf252ad1be2c89b69c2b068fc378daa952ba7f163c4a11628f55a4df523b3ef91a4505050565b6000546001600160a01b031633146113135760405162461bcd60e51b815260206004820181905260248201527f4f776e61626c653a2063616c6c6572206973206e6f7420746865206f776e657260448201526064016108f3565b600080546001600160a01b038381166001600160a01b0319831681178455604051919092169283917f8be0079c531659141344cd1fd0a4f28419497f9722a3daafe3b4186f6b6457e09190a35050565b6000612871426103e8613a6b565b61287d906103e8613a82565b905090565b816001600160a01b0316836001600160a01b0316036128e35760405162461bcd60e51b815260206004820152601960248201527f4552433732313a20617070726f766520746f2063616c6c65720000000000000060448201526064016108f3565b6001600160a01b03838116600081815260076020908152604080832094871680845294825291829020805460ff191686151590811790915591519182527f17307eab39ab6107e8899845ad3d59bd9653f200f220920489ca2b5937696c31910160405180910390a3505050565b61295b848484612655565b61296784848484612d42565b6119ac5760405162461bcd60e51b81526004016108f390613b6b565b6060600061299083612e43565b600101905060008167ffffffffffffffff8111156129b0576129b061347c565b6040519080825280601f01601f1916602001820160405280156129da576020820181803683370190505b5090508181016020015b600019016f181899199a1a9b1b9c1cb0b131b232b360811b600a86061a8153600a85049450846129e457509392505050565b6000805b6000838152600d6020526040902054811015612aee57612a3e600980546001019055565b6000838152600d6020526040902080546001919083908110612a6257612a6261384e565b906000526020600020906006020160050160016101000a81548160ff021916908315150217905550612adc600d60008581526020019081526020016000208281548110612ab157612ab161384e565b60009182526020909120600260069092020101546001600160a01b0316612ad760095490565b612f1b565b80612ae681613835565b915050612a1a565b50506000908152600c6020819052604090912001805463ff00000019166301000000179055600190565b6000826001600160a01b03168260405160006040518083038185875af1925050503d8060008114612b65576040519150601f19603f3d011682016040523d82523d6000602084013e612b6a565b606091505b505090508061099457600080fd5b600260015403612bca5760405162461bcd60e51b815260206004820152601f60248201527f5265656e7472616e637947756172643a207265656e7472616e742063616c6c0060448201526064016108f3565b6002600155565b6000805b6000838152600d6020526040902054811015612d1a576000838152600d6020526040902080546001919083908110612c0f57612c0f61384e565b906000526020600020906006020160050160006101000a81548160ff021916908315150217905550600d60008481526020019081526020016000208181548110612c5b57612c5b61384e565b906000526020600020906006020160030154600a6000828254612c7e9190613b13565b90915550506000838152600d602052604090208054612d08919083908110612ca857612ca861384e565b906000526020600020906006020160020160009054906101000a90046001600160a01b0316600d60008681526020019081526020016000208381548110612cf157612cf161384e565b906000526020600020906006020160030154612b18565b80612d1281613835565b915050612bd5565b50506000908152600c6020819052604090912001805462ff0000191662010000179055600190565b60006001600160a01b0384163b15612e3857604051630a85bd0160e11b81526001600160a01b0385169063150b7a0290612d86903390899088908890600401613bbd565b6020604051808303816000875af1925050508015612dc1575060408051601f3d908101601f19168201909252612dbe91810190613bfa565b60015b612e1e573d808015612def576040519150601f19603f3d011682016040523d82523d6000602084013e612df4565b606091505b508051600003612e165760405162461bcd60e51b81526004016108f390613b6b565b805181602001fd5b6001600160e01b031916630a85bd0160e11b14905061264d565b506001949350505050565b60008072184f03e93ff9f4daa797ed6e38ed64bf6a1f0160401b8310612e825772184f03e93ff9f4daa797ed6e38ed64bf6a1f0160401b830492506040015b6d04ee2d6d415b85acef81000000008310612eae576d04ee2d6d415b85acef8100000000830492506020015b662386f26fc100008310612ecc57662386f26fc10000830492506010015b6305f5e1008310612ee4576305f5e100830492506008015b6127108310612ef857612710830492506004015b60648310612f0a576064830492506002015b600a83106105335760010192915050565b6001600160a01b038216612f715760405162461bcd60e51b815260206004820181905260248201527f4552433732313a206d696e7420746f20746865207a65726f206164647265737360448201526064016108f3565b6000818152600460205260409020546001600160a01b031615612fd65760405162461bcd60e51b815260206004820152601c60248201527f4552433732313a20746f6b656e20616c7265616479206d696e7465640000000060448201526064016108f3565b6000818152600460205260409020546001600160a01b03161561303b5760405162461bcd60e51b815260206004820152601c60248201527f4552433732313a20746f6b656e20616c7265616479206d696e7465640000000060448201526064016108f3565b6001600160a01b038216600081815260056020908152604080832080546001019055848352600490915280822080546001600160a01b0319168417905551839291907fddf252ad1be2c89b69c2b068fc378daa952ba7f163c4a11628f55a4df523b3ef908290a45050565b6040518061020001604052806000815260200160608152602001606081526020016060815260200160006001600160a01b03168152602001600081526020016000815260200160008152602001600081526020016000815260200160008152602001600081526020016000151581526020016000151581526020016000151581526020016000151581525090565b6001600160e01b03198116811461236557600080fd5b60006020828403121561315c57600080fd5b8135611a1f81613134565b60005b8381101561318257818101518382015260200161316a565b50506000910152565b600081518084526131a3816020860160208601613167565b601f01601f19169290920160200192915050565b602081526000611a1f602083018461318b565b6000602082840312156131dc57600080fd5b5035919050565b60006102008251845260208301518160208601526132038286018261318b565b9150506040830151848203604086015261321d828261318b565b91505060608301518482036060860152613237828261318b565b915050608083015161325460808601826001600160a01b03169052565b5060a0838101519085015260c0808401519085015260e080840151908501526101008084015190850152610120808401519085015261014080840151908501526101608084015190850152610180808401511515908501526101a0808401511515908501526101c0808401511515908501526101e092830151151592909301919091525090565b602081526000611a1f60208301846131e3565b80356001600160a01b038116811461330557600080fd5b919050565b6000806040838503121561331d57600080fd5b613326836132ee565b946020939093013593505050565b602080825282518282018190526000919060409081850190868401855b828110156133b6578151805185528681015187860152858101516001600160a01b031686860152606080820151908601526080808201519086015260a08082015115159086015260c09081015115159085015260e09093019290850190600101613351565b5091979650505050505050565b6000806000606084860312156133d857600080fd5b6133e1846132ee565b92506133ef602085016132ee565b9150604084013590509250925092565b6000602080830181845280855180835260408601915060408160051b870101925083870160005b8281101561345457603f198886030184526134428583516131e3565b94509285019290850190600101613426565b5092979650505050505050565b60006020828403121561347357600080fd5b611a1f826132ee565b634e487b7160e01b600052604160045260246000fd5b600067ffffffffffffffff808411156134ad576134ad61347c565b604051601f8501601f19908116603f011681019082821181831017156134d5576134d561347c565b816040528093508581528686860111156134ee57600080fd5b858560208301376000602087830101525050509392505050565b600082601f83011261351957600080fd5b611a1f83833560208501613492565b600080600080600080600060e0888a03121561354357600080fd5b873567ffffffffffffffff8082111561355b57600080fd5b6135678b838c01613508565b985060208a013591508082111561357d57600080fd5b6135898b838c01613508565b975060408a013591508082111561359f57600080fd5b506135ac8a828b01613508565b979a96995096976060810135975060808101359660a0820135965060c090910135945092505050565b600080604083850312156135e857600080fd5b50508035926020909101359150565b6000806040838503121561360a57600080fd5b613613836132ee565b91506020830135801515811461362857600080fd5b809150509250929050565b6000806000806080858703121561364957600080fd5b613652856132ee565b9350613660602086016132ee565b925060408501359150606085013567ffffffffffffffff81111561368357600080fd5b8501601f8101871361369457600080fd5b6136a387823560208401613492565b91505092959194509250565b600080604083850312156136c257600080fd5b6136cb836132ee565b91506136d9602084016132ee565b90509250929050565b600080600080600080600080610100898b0312156136ff57600080fd5b88359750602089013567ffffffffffffffff8082111561371e57600080fd5b61372a8c838d01613508565b985060408b013591508082111561374057600080fd5b61374c8c838d01613508565b975060608b013591508082111561376257600080fd5b5061376f8b828c01613508565b989b979a50959860808101359760a0820135975060c0820135965060e090910135945092505050565b600181811c908216806137ac57607f821691505b6020821081036137cc57634e487b7160e01b600052602260045260246000fd5b50919050565b6020808252602d908201527f4552433732313a2063616c6c6572206973206e6f7420746f6b656e206f776e6560408201526c1c881bdc88185c1c1c9bdd9959609a1b606082015260800190565b634e487b7160e01b600052601160045260246000fd5b6000600182016138475761384761381f565b5060010190565b634e487b7160e01b600052603260045260246000fd5b60208082526022908201527f5469636b657420636f7374206d7573742062652067726561746572207468616e604082015261020360f41b606082015260800190565b60208082526021908201527f53746172742064617465206d7573742062652067726561746572207468616e206040820152600360fc1b606082015260800190565b60208082526028908201527f456e642064617465206d7573742062652067726561746572207468616e207374604082015267617274206461746560c01b606082015260800190565b601f82111561099457600081815260208120601f850160051c810160208610156139565750805b601f850160051c820191505b8181101561397557828155600101613962565b505050505050565b815167ffffffffffffffff8111156139975761399761347c565b6139ab816139a58454613798565b8461392f565b602080601f8311600181146139e057600084156139c85750858301515b600019600386901b1c1916600185901b178555613975565b600085815260208120601f198616915b82811015613a0f578886015182559484019460019091019084016139f0565b5085821015613a2d5787850151600019600388901b60f8161c191681555b5050505050600190811b01905550565b602080825260149082015273115d995b9d08191bd95cc81b9bdd08195e1a5cdd60621b604082015260600190565b80820281158282048414176105335761053361381f565b808201808211156105335761053361381f565b60008351613aa7818460208801613167565b835190830190613abb818360208801613167565b01949350505050565b602080825260139082015272556e617574686f72697a656420656e7469747960681b604082015260600190565b600082613b0e57634e487b7160e01b600052601260045260246000fd5b500490565b818103818111156105335761053361381f565b60208082526025908201527f4552433732313a207472616e736665722066726f6d20696e636f72726563742060408201526437bbb732b960d91b606082015260800190565b60208082526032908201527f4552433732313a207472616e7366657220746f206e6f6e20455243373231526560408201527131b2b4bb32b91034b6b83632b6b2b73a32b960711b606082015260800190565b6001600160a01b0385811682528416602082015260408101839052608060608201819052600090613bf09083018461318b565b9695505050505050565b600060208284031215613c0c57600080fd5b8151611a1f8161313456fed421a5181c571bba3f01190c922c3b2a896fc1d84e86c9f17ac10e67ebef8b68a2646970667358221220fd56c5f7d446237d20a4dcd671a556479d22d38807dec74982e73e585ee5a00464736f6c63430008110033",
  "linkReferences": {},
  "deployedLinkReferences": {}
}